S0190000766664436C6F636B4370703136386F6C642E73726563DE
S11300000C9436000C944D0E0C94220A0C945E0051
S11300100C945E000C945E000C945E000C945E00E4
S11300200C945E000C94EB090C945E000C945E003E
S11300300C945E000C945C0E0C945E000C945E00B8
S11300400C94A7090C945E000C945E000C945E0062
S11300500C945E000C945E000C945E000C945E00A4
S11300600C945E000C945E004F05D11711241FBE42
S1130070CFEFD4E0DEBFCDBF11E0A0E0B1E0E4E912
S1130080F4E302C005900D92A231B107D9F721E043
S1130090A2E1B1E001C01D92A13AB207E1F710E07C
S11300A0C6E3D0E004C02197FE010E94421AC43383
S11300B0D107C9F70E945C0F0C94481A0C940000F5
S11300C0FC0160830895CF93DF93FC0130813830C5
S11300D048F088EF830F873050F0CAE2D0E0AAE2FC
S11300E0B0E009C0C4E2D0E0A4E2B0E004C0C7E2DA
S11300F0D0E0A7E2B0E02C91383060F481E090E0E9
S1130100A0E0B0E004C0880F991FAA1FBB1F3A9556
S1130110D2F718C048EF430F832F90E0473020F404
S1130120AC014850510903C0AC014F50510981E062
S113013090E0A0E0B0E004C0880F991FAA1FBB1F85
S11301404A95D2F7822B88833081383048F088EF83
S1130150830F873050F4C8E2D0E0A8E2B0E009C0D1
S1130160C5E2D0E0A5E2B0E004C0CBE2D0E0ABE26F
S1130170B0E02C91383060F481E090E0A0E0B0E091
S113018004C0880F991FAA1FBB1F3A95D2F718C045
S113019048EF430F832F90E0473020F4AC014850E0
S11301A0510903C0AC014F50510981E090E0A0E037
S11301B0B0E004C0880F991FAA1FBB1F4A95D2F74D
S11301C08095822388838FE797E00197F1F700C039
S11301D000002081283048F088EF820F873050F0EB
S11301E0AAE2B0E0CAE2D0E009C0A4E2B0E0C4E20E
S11301F0D0E004C0A7E2B0E0C7E2D0E088812830B4
S113020050F098EF920F30E0973018F428503109ED
S113021002C02F50310941E050E060E070E004C0BA
S1130220440F551F661F771F2A95D2F74095482320
S11302304C938FEE90E00197F1F700C0000020810D
S1130240283038F088EF820F873030F0E9E2F0E0B0
S113025005C0E3E2F0E002C0E6E2F0E0808128308D
S113026050F098EF920F30E0973018F4285031098D
S113027002C02F50310941E050E060E070E004C05A
S1130280440F551F661F771F2A95D2F7E7E6F6E05D
S11302903197F1F700C000008423DF91CF910895D6
S11302A0CF93DF93FC01962F2081283048F088EF0C
S11302B0820F873050F0AAE2B0E0CAE2D0E009C071
S11302C0A4E2B0E0C4E2D0E004C0A7E2B0E0C7E238
S11302D0D0E08881283050F048EF420F30E04730BA
S11302E018F42850310902C02F50310941E050E080
S11302F060E070E004C0440F551F661F771F2A9505
S1130300D2F7482B4C932081283048F088EF820F95
S1130310873050F4A8E2B0E0C8E2D0E009C0A5E21A
S1130320B0E0C5E2D0E004C0ABE2B0E0CBE2D0E0A4
S11303308881283050F048EF420F30E0473018F4FD
S11303402850310902C02F50310941E050E060E0EB
S113035070E004C0440F551F661F771F2A95D2F71B
S1130360409548234C939923E1F1F8948AE18A95C6
S1130370F1F700C02081283048F088EF820F8730E1
S113038050F0EAE2F0E0AAE2B0E009C0E4E2F0E012
S1130390A4E2B0E004C0E7E2F0E0A7E2B0E04C91F0
S11303A0283050F088EF820F30E0873018F428505E
S11303B0310902C02F50310981E090E0A0E0B0E0A3
S11303C004C0880F991FAA1FBB1F2A95D2F78095D6
S11303D0842380838FE391E00197F1F700C000004C
S11303E03BC0F8948FE391E00197F1F700C000005F
S11303F02081283048F088EF820F873050F0EAE2FD
S1130400F0E0AAE2B0E009C0E4E2F0E0A4E2B0E087
S113041004C0E7E2F0E0A7E2B0E04C91283050F0ED
S113042088EF820F30E0873018F42850310902C079
S11304302F50310981E090E0A0E0B0E004C0880FC3
S1130440991FAA1FBB1F2A95D2F780958423808306
S11304509AE19A95F1F700C07894DF91CF910895CD
S1130460CF93DF93FC01F8943081383048F088EF63
S1130470830F873050F0CAE2D0E0AAE2B0E009C0AE
S1130480C4E2D0E0A4E2B0E004C0C7E2D0E0A7E256
S1130490B0E02C91383060F481E090E0A0E0B0E06E
S11304A004C0880F991FAA1FBB1F3A95D2F718C022
S11304B048EF430F832F90E0473020F4AC014850BD
S11304C0510903C0AC014F50510981E090E0A0E014
S11304D0B0E004C0880F991FAA1FBB1F4A95D2F72A
S11304E0822B88833081383048F088EF830F87303F
S11304F050F4C8E2D0E0A8E2B0E009C0C5E2D0E020
S1130500A5E2B0E004C0CBE2D0E0ABE2B0E02C91D5
S1130510383060F481E090E0A0E0B0E004C0880FDF
S1130520991FAA1FBB1F3A95D2F718C048EF430F73
S1130530832F90E0473020F4AC014850510903C0A8
S1130540AC014F50510981E090E0A0E0B0E004C05C
S1130550880F991FAA1FBB1F4A95D2F78095822343
S113056088838AE08A95F1F700C02081283048F01A
S113057088EF820F873050F0AAE2B0E0CAE2D0E000
S113058009C0A4E2B0E0C4E2D0E004C0A7E2B0E055
S1130590C7E2D0E08881283050F098EF920F30E025
S11305A0973018F42850310902C02F50310941E026
S11305B050E060E070E004C0440F551F661F771FD1
S11305C02A95D2F7409548234C938AE28A95F1F70D
S11305D000C02081283038F088EF820F873030F057
S11305E0E9E2F0E005C0E3E2F0E002C0E6E2F0E0B8
S11305F08081283050F098EF920F30E0973018F453
S11306002850310902C02F50310941E050E060E028
S113061070E004C0440F551F661F771F2A95D2F758
S11306207894E7ECF0E03197F1F700C00000842300
S1130630DF91CF910895EF92FF920F931F93CF9381
S1130640DF937C01D8E0C0E00C2F10E015950795EE
S1130650C02FC7010E9430028111C068D150A1F798
S11306608C2FDF91CF911F910F91FF90EF90089500
S1130670CF92DF92FF920F931F93CF93DF938C015E
S1130680F62EC0E0D0E0CC24C394D12CB6010C2EBD
S113069001C0660F0A94EAF76F21C8010E94500155
S11306A02196C830D10591F7DF91CF911F910F9119
S11306B0FF90DF90CF900895CF93DF93EC010E94D9
S11306C063006CECCE01DF91CF910C943803CF938F
S11306D0DF93EC010E945C0364E4CE01DF91CF91CF
S11306E00C9438031F93CF93DF93EC010E945C03B7
S11306F06EEBCE010E943803CE010E941B03182F1B
S1130700CE010E941B03682F70E0762F6627610FCD
S1130710711D072E000C880B990B0E94D71820E03E
S113072030E040E85DE30E948C19DF91CF911F9186
S113073008950895CF93C62F82E191E00E94DE05CB
S113074060ED82E191E00E94EE056C2F82E191E080
S11307500E94EE0582E191E00E94DE0561ED82E1F6
S113076091E00E94EE0560E082E191E0CF910C946B
S1130770F805CF93DF93D62FC42F82E191E00E9436
S1130780DE0560ED82E191E00E94EE056D2F82E1CD
S113079091E00E94EE056C2F82E191E00E94EE054B
S11307A082E191E0DF91CF910C94E6058F929F92C4
S11307B0AF92BF92FF920F931F93CF93DF93EC01FD
S11307C08B0160E00E949A03482F50E094E0559515
S11307D047959A95E1F72AE0F22EF49E9001F59E52
S11307E0300D11248F70A901480F511DF801518358
S11307F0408361E0CE010E949A03482F50E034E028
S1130800559547953A95E1F7F49E9001F59E300D84
S113081011248F70A901480F511DF801538342839D
S113082062E0CE010E949A03482F50E064E055959F
S113083047956A95E1F7F49E9001F59E300D1124D9
S11308408F70A901480F511DF8015583448363E05B
S1130850CE010E949A03482F50E074E055954795C5
S11308607A95E1F7F49E9001F59E300D11248F7076
S1130870A901480F511DF8015587448764E0CE0152
S11308800E949A03482F50E0E4E055954795EA9575
S1130890E1F7F49E9001F59E300D11248F70A901AB
S11308A0480F511DF8015783468365E0CE010E942D
S11308B09A03482F50E0F4E055954795FA95E1F7EF
S11308C0F49E9001F59E300D11248F70A901480FFC
S11308D0511DF8015187408766E0CE010E949A03BA
S11308E0482F50E0A4E055954795AA95E1F7F49E6A
S11308F09001F59E300D11248F70A901480F511DF0
S1130900F8015387428761E1CE010E949A03F82ED1
S113091062E1CE010E949A03682F70E0B6E07595FB
S11309206795BA95E1F7072E000C880B990B0E9486
S1130930D71820E030E040E85EE30E948C194B01B8
S11309405C016F2D70E080E090E00E94D7189B015D
S1130950AC01C501B4010E943518F8016687778798
S1130960808B918B82E191E0DF91CF911F910F9168
S1130970FF90BF90AF909F908F900C94E605EF92FC
S1130980FF920F931F93CF93DF93CDB7DEB78C0104
S113099089859A852AE0E22EF12CB7010E94051A76
S11309A0AB0134E0440F551F3A95E1F7482B592B1E
S11309B060E0C8010E94B9038B859C85B7010E9441
S11309C0051AAB0164E0440F551F6A95E1F7482B03
S11309D0592B61E0C8010E94B9038D859E85B7013A
S11309E00E94051AAB0174E0440F551F7A95E1F794
S11309F0482B592B62E0C8010E94B9038D899E8956
S1130A00B7010E94051AAB01E4E0440F551FEA95B3
S1130A10E1F7482B592B63E0C8010E94B9038F8585
S1130A209889B7010E94051AAB01F4E0440F551FE1
S1130A30FA95E1F7482B592B64E0C8010E94B903E9
S1130A4089899A89B7010E94051AAB01A4E0440F71
S1130A50551FAA95E1F7482B592B65E0C8010E9460
S1130A60B9038B899C89B7010E94051AAB01B4E0D4
S1130A70440F551FBA95E1F7482B592B66E0C8017E
S1130A80DF91CF911F910F91FF90EF900C94B903D8
S1130A90613021F442E06EE00C94B903089582E1E0
S1130AA091E00C94D4050895F999FECF72BD61BD0F
S1130AB040BDFA9AF99A0895F999FECF72BD61BDC5
S1130AC0F89A80B50895CF92DF92EF92FF920F9338
S1130AD01F93CF93DF938C01EB0169017A01452FBA
S1130AE0552766277727BE01C8010E945405A70130
S1130AF066277727CE010196BC01C8010E945405E0
S1130B0077276F2D5E2D4D2DCE010296BC01C801B5
S1130B100E945405BE016D5F7F4F4C2DC801DF91CB
S1130B20CF911F910F91FF90EF90DF90CF900C9495
S1130B305405DF92EF92FF920F931F93CF93DF93AD
S1130B407C018B010E945C05D82EB8016F5F7F4F3A
S1130B50C7010E945C05C82FB8016E5F7F4FC701B3
S1130B600E945C05D82FB8016D5F7F4FC7010E94BA
S1130B705C054C2F50E060E070E05D29762F652F16
S1130B80542F44274D2B762F652F542F44278A0149
S1130B909B01082BC901B801DF91CF911F910F91DF
S1130BA0FF90EF90DF90089580E28093B80083E097
S1130BB08093B90084E08093BC00089584EA809314
S1130BC0BC008091BC0087FFFCCF089584E980932A
S1130BD0BC008091BC0084FDFCCF08956093BB00F1
S1130BE084E88093BC008091BC0087FFFCCF08950B
S1130BF08091BC00662311F0806401C08F7B8093D8
S1130C00BC008091BC0084688093BC008091BC00CF
S1130C1087FFFCCF8091BB000895CF92DF92EF92C3
S1130C20FF920F93CF93DF93FC01683048F088EF75
S1130C30860F873050F0CAE2D0E0AAE2B0E009C0E3
S1130C40C4E2D0E0A4E2B0E004C0C7E2D0E0A7E28E
S1130C50B0E03C91683068F481E090E0A0E0B0E05E
S1130C60062E04C0880F991FAA1FBB1F0A94D2F72F
S1130C7019C0862F90E058EF560F7C01573020F4AE
S1130C8058E0E51AF10803C05FE0E51AF10881E0D5
S1130C9090E0A0E0B0E004C0880F991FAA1FBB1F1A
S1130CA0EA94D2F7832B8883483048F088EF840F86
S1130CB0873050F4C7E2D0E0A7E2B0E009C0C4E254
S1130CC0D0E0A4E2B0E004C0CAE2D0E0AAE2B0E01E
S1130CD03C91483068F481E090E0A0E0B0E0042E5C
S1130CE004C0880F991FAA1FBB1F0A94D2F719C00A
S1130CF0842F90E058EF540F7C01573020F458E0D3
S1130D00E51AF10803C05FE0E51AF10881E090E01C
S1130D10A0E0B0E004C0880F991FAA1FBB1FEA948B
S1130D20D2F7832B8883283048F088EF820F8730EE
S1130D3050F0AAE2B0E0CAE2D0E009C0A4E2B0E018
S1130D40C4E2D0E004C0A7E2B0E0C7E2D0E088810A
S1130D50283068F4C12CD12C7601C394022E04C02F
S1130D60CC0CDD1CEE1CFF1C0A94D2F71FC0C22F52
S1130D70D0E098EF920F973068F42897C12CD12CCB
S1130D807601C39404C0CC0CDD1CEE1CFF1CCA9578
S1130D90D2F70CC02F97C12CD12C7601C39404C078
S1130DA0CC0CDD1CEE1CFF1CCA95D2F7C82ACC92D1
S1130DB06083418322830383DF91CF910F91FF905E
S1130DC0EF90DF90CF9008958F929F92AF92BF9251
S1130DD0CF92DF92EF92FF920F931F93CF93DF9303
S1130DE0FC0147E050E070E0C12CD12C7601C394A3
S1130DF08381813009F067C02281CB01042E02C0B7
S1130E00959587950A94E2F780FF2EC0283048F024
S1130E1088EF820F873050F4A8E2B0E0C8E2D0E057
S1130E2009C0A5E2B0E0C5E2D0E004C0ABE2B0E0A6
S1130E30CBE2D0E08881283050F098EF920F30E078
S1130E40973018F42850310902C02F503109460157
S1130E50570104C0880C991CAA1CBB1C2A95D2F704
S1130E6095018401082B2EC0283048F088EF820FAA
S1130E70873050F4A8E2B0E0C8E2D0E009C0A5E2AF
S1130E80B0E0C5E2D0E004C0ABE2B0E0CBE2D0E039
S1130E908881283050F098EF920F30E0973018F4A2
S1130EA02850310902C02F5031094601570104C0AE
S1130EB0880C991CAA1CBB1C2A95D2F795018401A5
S1130EC0009508230C938081883048F098EF980FA0
S1130ED0973050F4A8E2B0E0C8E2D0E009C0A5E23F
S1130EE0B0E0C5E2D0E004C0ABE2B0E0CBE2D0E0D9
S1130EF0C881883040F028EF280F90E0273010F4A4
S1130F00089701C00F979701860104C0000F111FB5
S1130F10221F331F8A95D2F700950C230C938081EE
S1130F20883048F098EF980F973050F4A8E2B0E07A
S1130F30C8E2D0E009C0A5E2B0E0C5E2D0E004C058
S1130F40ABE2B0E0CBE2D0E0C881883040F028EFDB
S1130F50280F90E0273010F4089701C00F979701ED
S1130F60860104C0000F111F221F331F8A95D2F778
S1130F700C2B0C934150510908F03ACFDF91CF91DB
S1130F801F910F91FF90EF90DF90CF90BF90AF90A3
S1130F909F908F900895FC013181383048F028EFFC
S1130FA0230F273050F0EBE2F0E0ABE2B0E009C0F1
S1130FB0E5E2F0E0A5E2B0E004C0E8E2F0E0A8E297
S1130FC0B0E02C91383060F441E050E060E070E033
S1130FD004C0440F551F661F771F3A95D2F715C0FA
S1130FE068EF630F432F50E0DA01673010F418976D
S1130FF001C01F9741E050E060E070E004C0440F7E
S1131000551F661F771FAA95D2F7422B4083FC0118
S11310102181283048F088EF820F873050F4E8E2CD
S1131020F0E0A8E2B0E009C0E5E2F0E0A5E2B0E05B
S113103004C0EBE2F0E0ABE2B0E04C91283050F0B9
S113104088EF820F30E0873018F42850310902C04D
S11310502F50310981E090E0A0E0B0E004C0880F97
S1131060991FAA1FBB1F2A95D2F7809584238083DA
S113107008958F929F92AF92BF92CF92DF92EF9298
S1131080FF92FC012485283038F038EF320F3730D6
S113109030F0E9E2F0E005C0E3E2F0E002C0E6E2AD
S11310A0F0E04081842E912CA12CB12C283028F41E
S11310B041E050E060E070E010C048EF420F30E0E3
S11310C0473018F42850310902C02F503109C12C7F
S11310D0D12C7601C394B701A60104C0440F551F57
S11310E0661F771F2A95D2F7482159216A217B214F
S11310F0452B462B472B21F0FC01168681E001C0CD
S113110080E0FF90EF90DF90CF90BF90AF909F90E2
S11311108F900895FC012485283038F088EF820FE1
S1131120873030F0A9E2B0E005C0A3E2B0E002C02D
S1131130A6E2B0E08C9190E0A0E0B0E0283050F05E
S113114048EF420F30E0473018F42850310902C00C
S11311502F50310941E050E060E070E004C0440FDA
S1131160551F661F771F2A95D2F7482359236A23F0
S11311707B23452B462B472B99F480819181A281B7
S1131180B3810196A11DB11D80839183A283B38392
S11311900197A105B10591F481E0868785870895BB
S11311A08585882331F08FE19EE40197F1F700C033
S11311B000001586108211821282138280E0089545
S11311C0CF92DF92EF92FF92FC01CB01248528306D
S11311D038F038EF320F373030F0A9E2B0E005C014
S11311E0A3E2B0E002C0A6E2B0E0CC90D12CE12CA6
S11311F0F12C283050F048EF420F30E0473018F41B
S11312002850310902C02F50310941E050E060E01C
S113121070E004C0440F551F661F771F2A95D2F74C
S11312204C215D216E217F21452B462B472B09F54F
S113123040855185628573854F5F5F4F6F4F7F4F48
S11312404087518762877387403157426105710532
S1131250A1F421E0268720E137E2A901481B590BBC
S1131260CA01A0E0B0E080879187A287B38781E0BC
S113127005C0108611861286138680E0FF90EF90D9
S1131280DF90CF9008958F929F92AF92BF92CF92AA
S1131290DF92EF92FF920F931F93FC012485283075
S11312A038F088EF820F873030F0A9E2B0E005C053
S11312B0A3E2B0E002C0A6E2B0E0CC90D12CE12CD5
S11312C0F12C283050F088EF820F30E0873018F48A
S11312D02850310902C02F50310981E090E0A0E08C
S11312E0B0E04C015D0104C0880C991CAA1CBB1C15
S11312F02A95D2F7950184010C211D212E213F212D
S1131300012B022B032B99F484819581A681B7814B
S11313100196A11DB11D84839583A683B7834817C5
S113132059076A077B0739F481E0868705C0148270
S113133015821682178280E01F910F91FF90EF9023
S1131340DF90CF90BF90AF909F908F9008951F92A1
S11313500F920FB60F9211242F933F934F935F93E5
S11313606F937F938F939F93AF93BF93EF93FF9369
S113137084EB86BD80913C0190E0019687709927AB
S113138080933C01E0913C01F0E0E65FFE4F608118
S11313908DE991E00E94E406E0913C01F0E0EC5C10
S11313A0FE4F60818DE991E00E94E4068DE991E0B1
S11313B00E94CB07FF91EF91BF91AF919F918F91C5
S11313C07F916F915F914F913F912F910F900FBE3D
S11313D00F901F9018951F920F920FB60F92112421
S11313E02F938F939F9388E38093B2008091490158
S11313F090914A01019690934A0180934901803B60
S11314009440C0F01092B10010924701109248012C
S11314101092450110924101109242011092430131
S1131420109244011092400110923F0110923E012B
S113143010923D019F918F912F910F900FBE0F90AD
S11314401F9018951F920F920FB60F9211242F938D
S11314503F938F939F93AF93BF938091B10082602A
S11314608093B1008091490190914A01069708F454
S113147097C08091490190914A018C36910540F0C2
S11314808091490190914A018337910508F497C0EE
S113149080914701882309F483C080914901909188
S11314A04A018935910540F08091490190914A01A2
S11314B08F35910508F48BC08091490190914A01C0
S11314C0099708F18091490190914A010D97D8F448
S11314D0809148018F5F80934801809148018091F9
S11314E04801893008F4A1C080914801893008F08E
S11314F074C080914801813108F074C08091480122
S1131500893108F075C08091490190914A01419751
S113151008F18091490190914A014597D8F480914E
S113152048018F5F80934801809148018091480170
S1131530893008F4E5C080914801893008F0BCC0C6
S113154080914801813108F0BCC080914801893103
S113155008F0BDC080914801803211F5209140010E
S113156080913F0190E0820F911D8F3F910559F4C6
S113157020913E0180913D0190E0820F911D8F3FAB
S1131580910509F4F8C020913E0180913D0190E05D
S1131590820F911D8F3F910509F4EDC01092B100A7
S11315A010924A0110924901BF91AF919F918F917E
S11315B03F912F910F900FBE0F901F90189581E0CF
S11315C080934701109248011092450161CF81E058
S11315D080934601809345016FCF8091480181310A
S11315E0D8F187CF80914801893108F44DC086CF66
S11315F080914801813208F086CF209148013091D2
S11316003D01295181E090E0A0E0B0E004C0880FE2
S1131610991FAA1FBB1F2A95D2F780959095A09574
S1131620B095832380933D016ECF30914801209182
S1131630400181E090E0A0E0B0E004C0880F991F71
S1131640AA1FBB1F3A95D2F780959095A095B095A7
S113165082238093400148CF2091480130913F017B
S1131660295081E090E0A0E0B0E004C0880F991F09
S1131670AA1FBB1F2A95D2F780959095A095B09587
S1131680832380933F0135CF2091480130913E015F
S1131690215181E090E0A0E0B0E004C0880F991FE0
S11316A0AA1FBB1F2A95D2F780959095A095B09557
S11316B0832380933E0122CF80914801813198F1A8
S11316C03FCF80914801893108F441C03ECF8091D9
S11316D04801813208F03ECF2091480130913D010C
S11316E0295181E090E0A0E0B0E004C0880F991F88
S11316F0AA1FBB1F2A95D2F7832B80933D012ACFC3
S1131700309148012091400181E090E0A0E0B0E0F8
S113171004C0880F991FAA1FBB1F3A95D2F7822BCA
S11317208093400108CF2091480130913F01295016
S113173081E090E0A0E0B0E004C0880F991FAA1FE8
S1131740BB1F2A95D2F7832B80933F01F9CE2091BA
S1131750480130913E01215181E090E0A0E0B0E0E9
S113176004C0880F991FAA1FBB1F2A95D2F7832B89
S113177080933E01EACE81E080934B0110924801B0
S11317808091400190E0A0E0B0E08093410190930B
S11317904201A0934301B09344018091410190918F
S11317A04201A0914301B0914401BA2FA92F982F6F
S11317B088278093410190934201A0934301B09301
S11317C0440120913F018091410190914201A091F7
S11317D04301B0914401822B8093410190934201D3
S11317E0A0934301B093440180914101909142013F
S11317F0A0914301B0914401BA2FA92F982F8827B3
S11318008093410190934201A0934301B09344011A
S113181020913E018091410190914201A0914301A8
S1131820B0914401822B8093410190934201A09393
S11318304301B09344018091410190914201A091F0
S11318404301B0914401BA2FA92F982F8827809380
S1131850410190934201A0934301B093440120912C
S11318603D018091410190914201A0914301B091C9
S11318704401822B8093410190934201A093430140
S1131880B09344018BCECF92DF92EF92FF92CF932D
S11318906B017C0120E030E0A9010E94A11887FFC0
S11318A006C0E894F7F882E08093350102C01092F4
S11318B035011092340110923A0110923B0120E05C
S11318C030E0A901C701B6010E94A118811105C029
S11318D08DEF809336018DEB33C02DEC3CEC4CEC5A
S11318E05DE3C701B6010E94871987FD31C026E672
S11318F036E64EE151E4C701B6010E94A11818165C
S11319003CF1C701B6010E94A618E62FF0E0E050B2
S1131910FF4F808180648093360120E030E040E214
S113192051E4C701B6010E948C190E94A618862FA3
S11319306AE00E94F919E92FF0E0E050FF4F80813E
S1131940809337018AEA80933801109239014CC0A0
S113195020E030E040E251E4C701B6010E9487195B
S113196087FD42C02DEC3CEC47EC52E4C701B601C4
S11319700E94A1181816C4F1C701B6010E94A61846
S1131980262F862F64E60E94F919892FCAE06C2F4E
S11319900E94F919E82FF0E0E050FF4F8081809316
S11319A03601822F0E94F919E92FF0E0E050FF4F31
S11319B0808180648093370120E030E040E251E48C
S11319C0C701B6010E948C190E94A618862F6C2F9D
S11319D00E94F919E92FF0E0E050FF4F80818093D5
S11319E038018AEA80933901CF91FF90EF90DF901C
S11319F0CF900895CF92EF92FF920F931F93CF93BE
S1131A00DF93FB01EA01232B49F1009739F48DEBB5
S1131A1080933401CC2029F18DEF23C09C01215007
S1131A2031092930310510F42DEB0EC09C012A50E8
S1131A3031092A353105B8F46AE070E00E94051ACC
S1131A40DB01A050BF4F2C9120933401DC01A05046
S1131A50BF4F8C91CC2029F0806403C010923401D4
S1131A6080E480933501012B49F1309739F48DEBF3
S1131A7080933601CC2029F18DEF23C0CF0101974B
S1131A80099720F48DEB8093360111C0CF010A979A
S1131A908A359105C0F4CF016AE070E00E94051A0E
S1131AA0FB01E050FF4F208120933601FC01E05000
S1131AB0FF4F8081CC2029F0806403C0109236014E
S1131AC080E480933701EF28C1F1209749F48BE932
S1131AD0809338018DEB8093390180933A012AC0B9
S1131AE0CE010197099760F48BE9809338018DEB5F
S1131AF08093390180933A01C050DF4F88811AC026
S1131B00CE010A978A35910500F58BE98093380157
S1131B108DEB80933901CE016AE070E00E94051AD2
S1131B20FB01E050FF4F208120933A01FC01E0507B
S1131B30FF4F808180933B0108C0109238011092BE
S1131B40390110923A0110923B01DF91CF911F911C
S1131B500F91FF90EF90CF900895EF92FF920F9323
S1131B601F93CF93DF93EB01FA01232B29F1009705
S1131B7021F48DEB809334010DC09C012150310977
S1131B802930310550F42DEB20933401DC01A050B1
S1131B90BF4F8C918093350113C09C012A503109A9
S1131BA02A35310568F46AE070E00E94051ADB0109
S1131BB0A050BF4F2C91E8CF109234011092350100
S1131BC0012B41F1209721F48DEB809337010AC05A
S1131BD0CE010197099748F48DEB80933701C050EB
S1131BE0DF4F88818093380119C0CE010A978A3566
S1131BF09105A0F4CE016AE070E00E94051ADB01B1
S1131C00A050BF4F2C9120933701DC01A050BF4F4F
S1131C108C91E8CF1092370110923801EF2829F106
S1131C20309721F48DEB80933A011CC0CF010197CA
S1131C30099720F48DEB80933A0111C0CF010A97E4
S1131C408A359105B0F4CF016AE070E00E94051A6C
S1131C50FB01E050FF4F208120933A01FC01E0504A
S1131C60FF4F808180933B0104C010923A0110928F
S1131C703B01DF91CF911F910F91FF90EF90089559
S1131C80882331F082E080933601809339010895EE
S1131C90109236011092390108951F920F920FB6D7
S1131CA00F9211248F9381E0809333018F910F90D1
S1131CB00FBE0F901F9018951F920F920FB60F92A0
S1131CC011242F933F934F935F936F937F938F933D
S1131CD09F93AF9386E09FEF909385008093840059
S1131CE02091130130911401409115015091160176
S1131CF060911701709118018091190190911A0156
S1131D00A1E00E94191A2093130130931401409307
S1131D101501509316016093170170931801809375
S1131D20190190931A01AF919F918F917F916F91B7
S1131D305F914F913F912F910F900FBE0F901F9085
S1131D4018959C01FB01CB0183709927892B39F4E9
S1131D50CB0164E670E00E94051A892B51F4CF018F
S1131D6060E971E00E94051A892B19F08DE190E079
S1131D7002C08CE190E02130310579F02230310548
S1131D8071F02330310579F02430310591F025309C
S1131D903105C1F080E090E002C08FE190E0263090
S1131DA03105B1F002C08FE190E027303105B1F088
S1131DB002C08EE190E028303105C9F029303105A8
S1131DC099F002C08FE190E02A30310581F002C021
S1131DD08EE190E02B30310539F002C08FE190E0C4
S1131DE02C30310521F008958EE190E008958FE1C3
S1131DF090E0089520E030E0F901EC5CFE4F808330
S1131E002F5F3F4F28303105B9F7089580E00E94D5
S1131E10FA0E80E090E022E0FC01EC5CFE4F2083AF
S1131E203FEF43EF51E0315040405040E1F700C0F4
S1131E30000001968830910579F7089580E00E94AA
S1131E40FA0E88E090E022E0FC01EC5CFE4F208377
S1131E503FEF43EF51E0315040405040E1F700C0C4
S1131E600000019789F70895811102C08DEB09C024
S1131E709FEF980F993050F4E82FF0E0E050FF4FB7
S1131E8080818093340110923501089596EF980F64
S1131E909A3588F46AE00E94F919E82FF0E0E050DE
S1131EA0FF4F808180933401E92FF0E0E050FF4F31
S1131EB08081809335010895CF93DF93CDB7DEB74A
S1131EC0C055D1090FB6F894DEBF0FBECDBFF8944C
S1131ED061E08CE991E00E94480585B5846085BD88
S1131EE080916E00816080936E001092B1008091A9
S1131EF07000816080937000809181008360809382
S1131F00810080916F00816080936F0086E09FEF75
S1131F109093850080938400809169008860809309
S1131F206900809169008160809369008DB383604A
S1131F308DBB78949E012F5F3F4F790100E010E044
S1131F40B80189E891E00E949905D7016D937D93CA
S1131F508D939D937D010C5F1F4F0432110581F712
S1131F6029961CAE1DAE1EAE1FAE299725961CAE3B
S1131F701DAE1EAE1FAE25971FA21EA2612C712C92
S1131F801BAE1AAE21961FAE1EAE219718AA1FA62D
S1131F9019AE18AE1AAA19AA812C912C412C512CD5
S1131FA0212C312C1EA61DA61CA61BA61AA619A6FA
S1131FB01DAA1FAA1EAE1DAE1BAA1CAE18A61CAAE3
S1131FC01DA21EAA20911301309114014091150104
S1131FD050911601609117017091180180911901B7
S1131FE090911A01A0902301B0902401C090250182
S1131FF0D0902601E0902701F0902801009129015A
S113200010912A010E94251A273E334041055105AB
S1132010610571058105910509F008F440C07091CE
S113202013016091140150911501409116013091F2
S11320301701209118019091190180911A01709350
S1132040230160932401509325014093260130938A
S11320502701209328019093290180932A01E8AD58
S1132060F9AD319729F488E891E00E94670311C023
S113207028AD39AD2330310561F488E891E00E9440
S1132080720329966CAF7DAF8EAF9FAF299719AEBF
S113209018AE48AD59AD4F5F5F4F59AF48AF40E2FE
S11320A05EE460E070E08CE491E00E9443098823E0
S11320B029F058A581E0582758A75CAF40E25EE4B8
S11320C060E070E089E791E00E944309882329F0E9
S11320D09DA1A1E09A279DA39CAB89E791E00E9472
S11320E08A088823B1F0BDA1BB2329F0898D9A8D7C
S11320F0AB8DBC8D04C089899A89AB89BC898093D6
S1132100410190934201A0934301B093440111E033
S113211001C010E08BE591E00E948A08882319F140
S1132120EDA1EE2329F089859A85AB85BC8504C091
S1132130898D9A8DAB8DBC8D809341019093420122
S1132140A0934301B0934401F8A5FF2359F02FA5B0
S113215038A92F5F3F4F38AB2FA72930310514F032
S113216018AA1FA611E08AE691E00E948A08882333
S113217019F13DA1332329F08D859E85AF85B8895A
S113218004C08D8D9E8DAF8DB8A180934101909335
S11321904201A0934301B093440148A5442359F05C
S11321A08FA598A9019798AB8FA7019621F4E8E031
S11321B0F0E0F8ABEFA711E064E873E08AE691E0A1
S11321C00E94E0088823A9F0FDA1FF2329F08D8552
S11321D09E85AF85B88903C080E090E0DC018093E0
S11321E0410190934201A0934301B093440121E043
S11321F02EAB64E873E08BE591E00E94E00888234D
S1132200A9F03DA1332329F089859A85AB85BC8546
S113221003C080E090E0DC0180934101909342018F
S1132220A0934301B093440141E04EAB8091780107
S1132230811105C080916901811108C00DC08AE631
S113224091E00E943908811126C3F4CF8BE591E017
S11322500E94390881111FC38CE491E00E948A080E
S11322608823A1F05DA1552329F08D899E89AF892A
S1132270B88D03C080E090E0DC018093410190932D
S11322804201A0934301B093440111E080914B01BA
S1132290882339F088A5882321F09DA9992309F47E
S11322A0FCC280914B0181110AC0809146018111C9
S11322B006C0111104C0AEA9AA2309F4E3C0109208
S11322C04B01109246018091410190914201A091ED
S11322D04301B091440149895A896B897C89481723
S11322E059076A077B0719F4B8A5B111E9C2298D0A
S11322F03A8D4B8D5C8D2D962CAF3DAF4EAF5FAFBD
S11323002D978091410190914201A0914301B09198
S11323104401281739074A075B0709F4DBC28D8D8E
S11323209E8DAF8DB8A161968CAF9DAFAEAFBFAFA0
S113233061978091410190914201A0914301B09134
S1132340440161962CAD3DAD4EAD5FAD619728174C
S113235039074A075B0709F4C9C28091410190918A
S11323604201A0914301B091440149855A856B858E
S11323707C85481759076A077B0709F4C3C2809113
S1132380410190914201A0914301B09144014D85D6
S11323905E856F857889481759076A077B0709F4B2
S11323A0BAC28091410190914201A0914301B09140
S11323B044014D815E816F817885481759076A070A
S11323C07B0709F4B1C28091410190914201A0912F
S11323D04301B091440149A15AA16BA17CA14817C2
S11323E059076A077B0709F4ABC2809141019091B8
S11323F04201A0914301B09144012D962CAD3DAD15
S11324004EAD5FAD2D97281739074A075B0709F4CE
S1132410A9C28091410190914201A0914301B091E0
S1132420440161962CAD3DAD4EAD5FAD619728176B
S113243039074A075B0709F4A2C2809141019091D0
S11324404201A0914301B09144014D895E896F8995
S1132450788D481759076A077B0709F49DC2BEA9FE
S1132460B111ACC28091410190914201A09143010C
S1132470B09144018093410190934201A0934301A0
S1132480B0934401EDA1EE2309F413C1FCA9FF2389
S113249079F16AE871E08CE991E00E94D603209119
S11324A08E0130918F013AA729A740918C01509158
S11324B08D015CA74BA780918A0190918B019EA707
S11324C08DA72090900130909101409092015090FE
S11324D0930180909401909095011092360110928E
S11324E03901AEA1BFA1AB2B91F0612C712C09C0B5
S11324F0EEA1FFA16E167F0651F0F3E06F16710492
S113250020F410923601109239017FA26EA220911C
S113251013013091140140911501509116016091FD
S11325201701709118018091190190911A01A090DE
S11325302B01B0902C01C0902D01D0902E01E09081
S11325402F01F090300100913101109132010E946D
S1132550251A2B313240410551056105710581056C
S1132560910509F008F4C4C370911301609114013A
S113257050911501409116013091170120911801D5
S11325809091190180911A0170932B0160932C0191
S113259050932D0140932E0130932F01209330014D
S11325A09093310180933201BBA9E1E0BE27BBAB1C
S11325B02EA13FA1232B41F42B2F30E0EE24E394F2
S11325C0F12C01E010E00DC04EA15FA14130510596
S11325D089F45BA9052F10E0EE24E394F12C21E0AB
S11325E030E04DA55EA56BA57CA589A59AA50E94A2
S11325F0AD0D48C08EA19FA10297C9F49BA9E92EF5
S1132600F12C01E010E021E030E04DA55EA56BA5C2
S11326107CA589A59AA50E94AD0DA8A562E0662EA9
S1132620712C1CAAA11149C0B1E0BDA3CBCCEEA171
S1132630FFA1339789F4FBA92F2F30E0CC24C39456
S1132640EE24E394F12C01E010E0A401B201C101F5
S11326500E94FA0C93E02BC02EA13FA12430310537
S113266089F43BA9032F10E0CC24C394EE24E39413
S1132670F12C21E030E0A401B201C1010E94FA0C66
S113268094E015C04EA15FA14530510509F030C357
S11326905BA9E52EF12CCC24C39401E010E021E0E9
S11326A030E0A401B201C1010E94FA0C95E080E07F
S11326B021C398A5992309F428C38CAD882341F03C
S11326C080E00E94FA0E81E00E94340F18AA1FA62F
S11326D0AFA5B8A92196EEADFFAD2197AE17BF0700
S11326E059F08A2F8F5F0E94340F25961CAE1DAEC1
S11326F01EAE1FAE259706C0FFA9F11175C02DA906
S11327002111B0C0209113013091140140911501A1
S1132710509116016091170170911801809119016F
S113272090911A01A0902B01B0902C01C0902D0122
S1132730D0902E01E0902F01F090300100913101F2
S1132740109132010E94251A2B383105410551059B
S1132750610571058105910509F008F4C7C27091FE
S113276013016091140150911501409116013091AB
S11327701701209118019091190180911A01709309
S11327802B0160932C0150932D0140932E01309323
S11327902F01209330019093310180933201EAADEF
S11327A0FBADE330F10524F43196FBAFEAAF02C090
S11327B01BAE1AAE81E090E0FC01EC5CFE4F10828F
S11327C0019688309105C1F7EAADFBADEB5CFE4F95
S11327D022E0208333E0309339014FE140933A0102
S11327E05EE350933B0182C280E00E94FA0E8FA503
S11327F08F5F0E94340FEFA5F8A9EE0FFF1FEE0FB5
S1132800FF1F81E090E08C0F9D1FE80FF91F2596B4
S11328102CAD3DAD4EAD5FAD259720833183428312
S113282053837C0100E010E0D7012D913D914D913F
S11328305D917D01B80189E891E00E9463050C5F18
S11328401F4F0432110581F7BFE1B0933801EDEB5E
S1132850E0933901FDEAF0933A0183EB80933B0165
S113286021E02DAB3DA131110BC0EFA5F8A92196B4
S1132870FFAFEEAF21971FAA1CAEF1E0F8A7A2CBE1
S11328804FA558A921965FAF4EAF21971FAA1CAE42
S113289051E05DA397CB1EAADFCC10924B0120918F
S11328A041013091420140914301509144012596E8
S11328B02CAF3DAF4EAF5FAF259731E03FABF1CCCE
S11328C0EDA1E11114CD80914501811110CD1DAA16
S11328D01FAA0DCD3DA1311122CD48A541111FCD17
S11328E080914501882309F46DC019CD3DA13111B2
S11328F034CD48A5411131CD80914501882309F497
S113290073C02BCD5DA1552309F439CD88A5882347
S113291009F47CC034CDFDA1FF2309F442CD28A5E0
S1132920222309F402C13DCD8091450181114BCD93
S1132930F8A5F11148CD21E02CAB31E03DA343CD06
S11329404DA1442309F451CD80914501811107C063
S113295051E05DA388A5811148CD1DA246CD91E02B
S11329609DA343CD3DA1332309F453CD809145016B
S113297081114FCD48A5442309F468C14ACD3DA136
S1132980332309F45ACD80914501811156CD48A5D0
S1132990442309F466C151CD5DA1552309F45FCDEB
S11329A080914501811107C088A5882309F462C17B
S11329B091E09DA354CDA1E0ADA351CD80E090E082
S11329C0DC0158CD80E00E94FA0E0E94060F49A94E
S11329D05AA94F5F5F4F5AAB49AB433051050CF4D2
S11329E09ECC1AAA19AA9BCC80E00E94FA0E0E94DF
S11329F01E0F89A99AA901979AAB89AB019609F090
S1132A00ACCCE2E0F0E0FAABE9ABA7CC6114710422
S1132A1051F4A9A5BAA51196BAA7A9A7589784F005
S1132A201AA619A60DC0B1E06B167104C9F4EBA582
S1132A30FCA53196FCA7EBA7FC9714F01CA61BA6DB
S1132A40EE24E394F12C01E010E021E030E04DA508
S1132A505EA56BA57CA589A59AA50E94AD0D40C075
S1132A60F2E06F167104D9F42DA53EA52F5F3F4FF8
S1132A703EA72DA72C33310514F01EA61DA6EE2467
S1132A80E394F12C01E010E021E030E04DA55EA5D7
S1132A906BA57CA589A59AA50E94AD0D70CC33E0E9
S1132AA06316710471F44FEF241A340AB401C2019D
S1132AB00E94A10E821593054CF522242394312CF7
S1132AC025C054E06516710459F48FEF481A580A6A
S1132AD09DE04916510494F044244394512C0EC0B3
S1132AE0A5E06A16710409F04ACCBFEF8B1A9B0A61
S1132AF0E4E68E16910414F0812C912CB401C201E9
S1132B000E94A10E821593050CF41C01CC24C394DD
S1132B10EE24E394F12C01E010E021E030E0A40184
S1132B20B201C1010E94FA0C2ACC6114710469F447
S1132B3049A55AA5415051095AA749A757FF14C09E
S1132B4087E190E09AA789A70FC091E06916710404
S1132B50D9F4ABA5BCA51197BCA7ABA7B7FF04C01C
S1132B60EBE3F0E0FCA7EBA7EE24E394F12C01E007
S1132B7010E021E030E04DA55EA56BA57CA589A5FC
S1132B809AA50E94AD0D3EC0F2E06F167104E1F407
S1132B902DA53EA5215031093EA72DA737FF04C01E
S1132BA04BE350E05EA74DA7EE24E394F12C01E043
S1132BB010E021E030E04DA55EA56BA57CA589A5BC
S1132BC09AA50E94AD0DEDCB53E06516710461F436
S1132BD081E0281A3108B401C2010E94A10E121426
S1132BE013042CF11C0123C094E06916710451F400
S1132BF0A1E04A1A5108141415048CF0BCE04B2EC1
S1132C00512C0DC0B5E06B16710409F0CACBE1E09C
S1132C108E1A910897FE03C0A3E68A2E912CB40164
S1132C20C2010E94A10E821593050CF41C01CC2450
S1132C30C394EE24E394F12C01E010E021E030E0B1
S1132C40A401B201C1010E94FA0CABCBFFEF6F1AD1
S1132C507F0A26E0621671040CF4DBCB612C712C24
S1132C60D8CB31E0631A710808F0E7CB95E0692E00
S1132C70712CE3CB89A59AA590938F0180938E0143
S1132C80ABA5BCA5B0938D01A0938C01EDA5FEA5C9
S1132C90F0938B01E0938A0130929101209290018C
S1132CA050929301409292019092950180929401E6
S1132CB02DB73EB7225131090FB6F8943EBF0FBE6F
S1132CC02DBFADB7BEB7119682E1EAE8F1E00190FD
S1132CD00D928A95E1F78CE991E00E94BF040FB64A
S1132CE0F894DEBF0FBECDBF1DA2B9CB1DAABACDCD
S1132CF09EA18FA158A56EA07FA09EA38FA31CAAFE
S1132D005111DBCC81E08DA35DC989A99AA9892BD6
S1132D1009F076C0209113013091140140911501FE
S1132D205091160160911701709118018091190159
S1132D3090911A01A0902B01B0902C01C0902D010C
S1132D40D0902E01E0902F01F090300100913101DC
S1132D50109132010E94251A2B3132404105510550
S1132D60610571058105910541F138F170911301F7
S1132D706091140150911501409116013091170191
S1132D80209118019091190180911A0170932B01DF
S1132D9060932C0150932D0140932E0130932F0109
S1132DA0209330019093310180933201BDADE1E075
S1132DB0BE27BDAF8B2F0E94400E80913301882324
S1132DC009F400C9109233016AE871E08CE991E0DA
S1132DD00E94D60340918A0150918B0160918C012D
S1132DE070918D01EE24E394F12C01E010E021E0D8
S1132DF030E080918E0190918F010E94AD0DE2C868
S1132E0029A93AA92130310509F06EC02091130196
S1132E1030911401409115015091160160911701F0
S1132E20709118018091190190911A01A0901B01D1
S1132E30B0901C01C0901D01D0901E01E0901F01B4
S1132E40F090200100912101109122010E94251A85
S1132E502B3132404105510561057105810591050C
S1132E6009F008F4AFC870911301609114015091F6
S1132E70150140911601309117012091180190918C
S1132E80190180911A0170931B0160931C015093E6
S1132E901D0140931E0130931F0120932001909344
S1132EA0210180932201BEADE1E0BE27BEAF6AE8F6
S1132EB071E08CE991E00E94D60340919401509115
S1132EC095016091920170919301CEACEE24E3944C
S1132ED0F12C01E010E021E030E08091900190912C
S1132EE091010E94FA0C6EC829A93AA92230310531
S1132EF009F068C820911301309114014091150123
S1132F005091160160911701709118018091190177
S1132F1090911A01A0901B01B0901C01C0901D015A
S1132F20D0901E01E0901F01F0902001009121013A
S1132F30109122010E94251A273E33404105510574
S1132F40610571058105910509F008F43BC870918C
S1132F5013016091140150911501409116013091B3
S1132F601701209118019091190180911A01709311
S1132F701B0160931C0150931D0140931E0130936B
S1132F801F0120932001909321018093220129960F
S1132F906CAD7DAD8EAD9FAD29970E94430C0C9412
S1132FA0E20F0F9301E025E048E06BE08DE991E04A
S1132FB00E940D068CE991E00E94990389E891E052
S1132FC00E9453056AE088E891E00E946000E9E706
S1132FD0F1E0108211821282138214821582168209
S1132FE0178210861186128613861686158684E14A
S1132FF084875598EAE6F1E01082118212821382E6
S11330001482158216821782108611861286138600
S11330101686158686E184875798EBE5F1E01082E1
S113302011821282138214821582168217821086EC
S11330301186128613861686158685E1848756982E
S1133040ECE4F1E010821182128213821482158260
S113305016821782108611861286138616861586A6
S1133060148620980F9108955058BB27AA270E94D0
S11330704C180C944D190E943F1938F00E944619BF
S113308020F039F49F3F19F426F40C943C190EF403
S1133090E095E7FB0C943619E92F0E945E1958F36A
S11330A0BA17620773078407950720F079F4A6F529
S11330B00C9480190EF4E0950B2EBA2FA02D0B0161
S11330C0B90190010C01CA01A0011124FF27591B69
S11330D099F0593F50F4503E68F11A16F040A22F6F
S11330E0232F342F4427585FF3CF469537952795E0
S11330F0A795F0405395C9F77EF41F16BA0B620BDF
S1133100730B840BBAF09150A1F0FF0FBB1F661F25
S1133110771F881FC2F70EC0BA0F621F731F841F68
S113312048F4879577956795B795F7959E3F08F08E
S1133130B0CF9395880F08F09927EE0F9795879550
S113314008950E94121908F481E008950E946619F6
S113315088F09F5798F0B92F9927B751B0F0E1F054
S1133160660F771F881F991F1AF0BA95C9F714C004
S1133170B13091F00E948019B1E008950C94801947
S1133180672F782F8827B85F39F0B93FCCF386953D
S113319077956795B395D9F73EF49095809570959A
S11331A061957F4F8F4F9F4F0895E89409C097FB17
S11331B03EF490958095709561957F4F8F4F9F4F0A
S11331C09923A9F0F92F96E9BB279395F69587954E
S11331D077956795B795F111F8CFFAF4BB0F11F411
S11331E060FF1BC06F5F7F4F8F4F9F4F16C08823B8
S11331F011F096E911C0772321F09EE8872F762FEE
S113320005C0662371F096E8862F70E060E02AF02E
S11332109A95660F771F881FDAF7880F969587951A
S113322097F90895990F0008550FAA0BE0E8FEEFEF
S113323016161706E807F907C0F012161306E40776
S1133240F50798F0621B730B840B950B39F40A266F
S113325061F0232B242B252B21F408950A2609F44D
S1133260A140A6958FEF811D811D089597F99F6751
S113327080E870E060E008959FEF80EC08950024FA
S11332800A941616170618060906089500240A94C7
S113329012161306140605060895092E0394000C4D
S11332A011F4882352F0BB0F40F4BF2B11F460FFDC
S11332B004C06F5F7F4F8F4F9F4F089557FD905805
S11332C0440F551F59F05F3F71F04795880F97FBE6
S11332D0991F61F09F3F79F08795089512161306A0
S11332E01406551FF2CF4695F1DF08C016161706CF
S11332F01806991FF1CF8695710561050894089504
S1133300E894BB2766277727CB0197F908950E9495
S1133310121908F48FEF08950E949F190C944D1907
S11333200E943F1938F00E94461920F0952311F0AD
S11333300C9436190C943C1911240C9481190E9494
S11333405E1970F3959FC1F3950F50E0551F629F6E
S1133350F001729FBB27F00DB11D639FAA27F00DEA
S1133360B11DAA1F649F6627B00DA11D661F829F11
S11333702227B00DA11D621F739FB00DA11D621FF6
S1133380839FA00D611D221F749F3327A00D611D13
S1133390231F849F600D211D822F762F6A2F1124F5
S11333A09F5750409AF0F1F088234AF0EE0FFF1F28
S11333B0BB1F661F771F881F91505040A9F79E3F7F
S11333C0510580F00C9436190C9481195F3FE4F395
S11333D0983ED4F3869577956795B795F795E795D5
S11333E09F5FC1F7FE2B880F911D9695879597F9DE
S11333F00895991B79E004C0991F961708F0961B4D
S1133400881F7A95C9F78095089597FB072E16F4BF
S1133410009407D077FD09D00E942E1A07FC05D02E
S11334203EF4909581959F4F0895709561957F4FD7
S113343008950024A7FD00942A0F301D401D501D3F
S1133440601D701D801D901D08952A193B094C09AB
S11334505D096E097F09800B910B0895AA1BBB1BA4
S113346051E107C0AA1FBB1FA617B70710F0A61B80
S1133470B70B881F991F5A95A9F780959095BC01A1
S1133480CD010895EE0FFF1F0590F491E02D0994EE
S1073490F894FFCFDA
S1133494BD0C9B9E2EB6B78CBFBE200408100180C1
S10534A40240E0
S9030000FC
